{
  "contractName": "VehicleLicenseVerifier",
  "abi": [
    {
      "inputs": [],
      "stateMutability": "nonpayable",
      "type": "constructor"
    },
    {
      "inputs": [
        {
          "internalType": "address",
          "name": "",
          "type": "address"
        }
      ],
      "name": "Officials",
      "outputs": [
        {
          "internalType": "string",
          "name": "name",
          "type": "string"
        },
        {
          "internalType": "string",
          "name": "Dzongkhag",
          "type": "string"
        }
      ],
      "stateMutability": "view",
      "type": "function",
      "constant": true
    },
    {
      "inputs": [],
      "name": "admin",
      "outputs": [
        {
          "internalType": "address",
          "name": "",
          "type": "address"
        }
      ],
      "stateMutability": "view",
      "type": "function",
      "constant": true
    },
    {
      "inputs": [
        {
          "internalType": "address",
          "name": "officialAddress",
          "type": "address"
        }
      ],
      "name": "verifyOfficial",
      "outputs": [
        {
          "internalType": "bool",
          "name": "",
          "type": "bool"
        }
      ],
      "stateMutability": "view",
      "type": "function",
      "constant": true
    },
    {
      "inputs": [
        {
          "internalType": "address",
          "name": "adminAddress",
          "type": "address"
        }
      ],
      "name": "isAdmin",
      "outputs": [
        {
          "internalType": "bool",
          "name": "",
          "type": "bool"
        }
      ],
      "stateMutability": "view",
      "type": "function",
      "constant": true
    },
    {
      "inputs": [
        {
          "internalType": "address",
          "name": "adminAddress",
          "type": "address"
        },
        {
          "internalType": "address",
          "name": "officialAddress",
          "type": "address"
        },
        {
          "internalType": "string",
          "name": "name",
          "type": "string"
        },
        {
          "internalType": "string",
          "name": "dzongkhag",
          "type": "string"
        }
      ],
      "name": "addOfficial",
      "outputs": [],
      "stateMutability": "nonpayable",
      "type": "function"
    },
    {
      "inputs": [],
      "name": "viewOfficial",
      "outputs": [
        {
          "components": [
            {
              "internalType": "string",
              "name": "name",
              "type": "string"
            },
            {
              "internalType": "string",
              "name": "Dzongkhag",
              "type": "string"
            }
          ],
          "internalType": "struct VehicleLicenseVerifier.Official[]",
          "name": "",
          "type": "tuple[]"
        }
      ],
      "stateMutability": "view",
      "type": "function",
      "constant": true
    },
    {
      "inputs": [
        {
          "internalType": "uint256",
          "name": "_barcodeNumber",
          "type": "uint256"
        },
        {
          "internalType": "string",
          "name": "_name",
          "type": "string"
        },
        {
          "internalType": "string",
          "name": "_village",
          "type": "string"
        },
        {
          "internalType": "string",
          "name": "_dzongkhag",
          "type": "string"
        },
        {
          "internalType": "string",
          "name": "_licenseNo",
          "type": "string"
        },
        {
          "internalType": "string",
          "name": "_issuedDate",
          "type": "string"
        },
        {
          "internalType": "string",
          "name": "_validity",
          "type": "string"
        }
      ],
      "name": "addLicenseInfo",
      "outputs": [],
      "stateMutability": "nonpayable",
      "type": "function"
    },
    {
      "inputs": [],
      "name": "viewLicenseInfos",
      "outputs": [
        {
          "components": [
            {
              "internalType": "string",
              "name": "Name",
              "type": "string"
            },
            {
              "internalType": "string",
              "name": "Village",
              "type": "string"
            },
            {
              "internalType": "string",
              "name": "Dzongkhag",
              "type": "string"
            },
            {
              "internalType": "string",
              "name": "LicenseNo",
              "type": "string"
            },
            {
              "internalType": "string",
              "name": "IssuedDate",
              "type": "string"
            },
            {
              "internalType": "string",
              "name": "Validity",
              "type": "string"
            }
          ],
          "internalType": "struct VehicleLicenseVerifier.licenseDetail[]",
          "name": "",
          "type": "tuple[]"
        }
      ],
      "stateMutability": "view",
      "type": "function",
      "constant": true
    }
  ],
  "bytecode": "0x608060405234801561001057600080fd5b50336000806101000a81548173ffffffffffffffffffffffffffffffffffffffff021916908373ffffffffffffffffffffffffffffffffffffffff1602179055506119c8806100606000396000f3fe608060405234801561001057600080fd5b50600436106100885760003560e01c80636e4aa2d81161005b5780636e4aa2d8146101275780638db7c12d14610158578063f851a44014610174578063fa33fab91461019257610088565b8063027ab3911461008d57806304f632c6146100a957806324d7806c146100c75780635d2246c4146100f7575b600080fd5b6100a760048036038101906100a29190610f16565b6101b0565b005b6100b16102a9565b6040516100be919061124d565b60405180910390f35b6100e160048036038101906100dc91906112cd565b6106f9565b6040516100ee9190611315565b60405180910390f35b610111600480360381019061010c91906112cd565b610762565b60405161011e9190611315565b60405180910390f35b610141600480360381019061013c91906112cd565b610810565b60405161014f92919061137a565b60405180910390f35b610172600480360381019061016d91906113b1565b610944565b005b61017c610abe565b604051610189919061145f565b60405180910390f35b61019a610ae2565b6040516101a79190611580565b60405180910390f35b6040518060c001604052808781526020018681526020018581526020018481526020018381526020018281525060046000898152602001908152602001600020600082015181600001908161020591906117ae565b50602082015181600101908161021b91906117ae565b50604082015181600201908161023191906117ae565b50606082015181600301908161024791906117ae565b50608082015181600401908161025d91906117ae565b5060a082015181600501908161027391906117ae565b50905050600387908060018154018082558091505060019003906000526020600020016000909190919091505550505050505050565b6060600060038054905067ffffffffffffffff8111156102cc576102cb610deb565b5b60405190808252806020026020018201604052801561030557816020015b6102f2610d36565b8152602001906001900390816102ea5790505b50905060005b6003805490508110156106f15760046000600383815481106103305761032f611880565b5b906000526020600020015481526020019081526020016000206040518060c0016040529081600082018054610364906115d1565b80601f0160208091040260200160405190810160405280929190818152602001828054610390906115d1565b80156103dd5780601f106103b2576101008083540402835291602001916103dd565b820191906000526020600020905b8154815290600101906020018083116103c057829003601f168201915b505050505081526020016001820180546103f6906115d1565b80601f0160208091040260200160405190810160405280929190818152602001828054610422906115d1565b801561046f5780601f106104445761010080835404028352916020019161046f565b820191906000526020600020905b81548152906001019060200180831161045257829003601f168201915b50505050508152602001600282018054610488906115d1565b80601f01602080910402602001604051908101604052809291908181526020018280546104b4906115d1565b80156105015780601f106104d657610100808354040283529160200191610501565b820191906000526020600020905b8154815290600101906020018083116104e457829003601f168201915b5050505050815260200160038201805461051a906115d1565b80601f0160208091040260200160405190810160405280929190818152602001828054610546906115d1565b80156105935780601f1061056857610100808354040283529160200191610593565b820191906000526020600020905b81548152906001019060200180831161057657829003601f168201915b505050505081526020016004820180546105ac906115d1565b80601f01602080910402602001604051908101604052809291908181526020018280546105d8906115d1565b80156106255780601f106105fa57610100808354040283529160200191610625565b820191906000526020600020905b81548152906001019060200180831161060857829003601f168201915b5050505050815260200160058201805461063e906115d1565b80601f016020809104026020016040519081016040528092919081815260200182805461066a906115d1565b80156106b75780601f1061068c576101008083540402835291602001916106b7565b820191906000526020600020905b81548152906001019060200180831161069a57829003601f168201915b5050505050815250508282815181106106d3576106d2611880565b5b602002602001018190525080806106e9906118de565b91505061030b565b508091505090565b60008060009054906101000a900473ffffffffffffffffffffffffffffffffffffffff1673ffffffffffffffffffffffffffffffffffffffff168273ffffffffffffffffffffffffffffffffffffffff1603610758576001905061075d565b600090505b919050565b600080600090505b600180549050811015610805578273ffffffffffffffffffffffffffffffffffffffff16600182815481106107a2576107a1611880565b5b9060005260206000200160009054906101000a900473ffffffffffffffffffffffffffffffffffffffff1673ffffffffffffffffffffffffffffffffffffffff16036107f257600191505061080b565b80806107fd906118de565b91505061076a565b50600090505b919050565b6002602052806000526040600020600091509050806000018054610833906115d1565b80601f016020809104026020016040519081016040528092919081815260200182805461085f906115d1565b80156108ac5780601f10610881576101008083540402835291602001916108ac565b820191906000526020600020905b81548152906001019060200180831161088f57829003601f168201915b5050505050908060010180546108c1906115d1565b80601f01602080910402602001604051908101604052809291908181526020018280546108ed906115d1565b801561093a5780601f1061090f5761010080835404028352916020019161093a565b820191906000526020600020905b81548152906001019060200180831161091d57829003601f168201915b5050505050905082565b60008054906101000a900473ffffffffffffffffffffffffffffffffffffffff1673ffffffffffffffffffffffffffffffffffffffff168473ffffffffffffffffffffffffffffffffffffffff16146109d2576040517f08c379a00000000000000000000000000000000000000000000000000000000081526004016109c990611972565b60405180910390fd5b604051806040016040528083815260200182815250600260008573ffffffffffffffffffffffffffffffffffffffff1673ffffffffffffffffffffffffffffffffffffffff1681526020019081526020016000206000820151816000019081610a3b91906117ae565b506020820151816001019081610a5191906117ae565b509050506001839080600181540180825580915050600190039060005260206000200160009091909190916101000a81548173ffffffffffffffffffffffffffffffffffffffff021916908373ffffffffffffffffffffffffffffffffffffffff16021790555050505050565b60008054906101000a900473ffffffffffffffffffffffffffffffffffffffff1681565b6060600060018054905067ffffffffffffffff811115610b0557610b04610deb565b5b604051908082528060200260200182016040528015610b3e57816020015b610b2b610d6c565b815260200190600190039081610b235790505b50905060005b600180549050811015610d2e576002600060018381548110610b6957610b68611880565b5b9060005260206000200160009054906101000a900473ffffffffffffffffffffffffffffffffffffffff1673ffffffffffffffffffffffffffffffffffffffff1673ffffffffffffffffffffffffffffffffffffffff168152602001908152602001600020604051806040016040529081600082018054610be9906115d1565b80601f0160208091040260200160405190810160405280929190818152602001828054610c15906115d1565b8015610c625780601f10610c3757610100808354040283529160200191610c62565b820191906000526020600020905b815481529060010190602001808311610c4557829003601f168201915b50505050508152602001600182018054610c7b906115d1565b80601f0160208091040260200160405190810160405280929190818152602001828054610ca7906115d1565b8015610cf45780601f10610cc957610100808354040283529160200191610cf4565b820191906000526020600020905b815481529060010190602001808311610cd757829003601f168201915b505050505081525050828281518110610d1057610d0f611880565b5b60200260200101819052508080610d26906118de565b915050610b44565b508091505090565b6040518060c001604052806060815260200160608152602001606081526020016060815260200160608152602001606081525090565b604051806040016040528060608152602001606081525090565b6000604051905090565b600080fd5b600080fd5b6000819050919050565b610dad81610d9a565b8114610db857600080fd5b50565b600081359050610dca81610da4565b92915050565b600080fd5b600080fd5b6000601f19601f8301169050919050565b7f4e487b7100000000000000000000000000000000000000000000000000000000600052604160045260246000fd5b610e2382610dda565b810181811067ffffffffffffffff82111715610e4257610e41610deb565b5b80604052505050565b6000610e55610d86565b9050610e618282610e1a565b919050565b600067ffffffffffffffff821115610e8157610e80610deb565b5b610e8a82610dda565b9050602081019050919050565b82818337600083830152505050565b6000610eb9610eb484610e66565b610e4b565b905082815260208101848484011115610ed557610ed4610dd5565b5b610ee0848285610e97565b509392505050565b600082601f830112610efd57610efc610dd0565b5b8135610f0d848260208601610ea6565b91505092915050565b600080600080600080600060e0888a031215610f3557610f34610d90565b5b6000610f438a828b01610dbb565b975050602088013567ffffffffffffffff811115610f6457610f63610d95565b5b610f708a828b01610ee8565b965050604088013567ffffffffffffffff811115610f9157610f90610d95565b5b610f9d8a828b01610ee8565b955050606088013567ffffffffffffffff811115610fbe57610fbd610d95565b5b610fca8a828b01610ee8565b945050608088013567ffffffffffffffff811115610feb57610fea610d95565b5b610ff78a828b01610ee8565b93505060a088013567ffffffffffffffff81111561101857611017610d95565b5b6110248a828b01610ee8565b92505060c088013567ffffffffffffffff81111561104557611044610d95565b5b6110518a828b01610ee8565b91505092959891949750929550565b600081519050919050565b600082825260208201905092915050565b6000819050602082019050919050565b600081519050919050565b600082825260208201905092915050565b60005b838110156110c65780820151818401526020810190506110ab565b60008484015250505050565b60006110dd8261108c565b6110e78185611097565b93506110f78185602086016110a8565b61110081610dda565b840191505092915050565b600060c083016000830151848203600086015261112882826110d2565b9150506020830151848203602086015261114282826110d2565b9150506040830151848203604086015261115c82826110d2565b9150506060830151848203606086015261117682826110d2565b9150506080830151848203608086015261119082826110d2565b91505060a083015184820360a08601526111aa82826110d2565b9150508091505092915050565b60006111c3838361110b565b905092915050565b6000602082019050919050565b60006111e382611060565b6111ed818561106b565b9350836020820285016111ff8561107c565b8060005b8581101561123b578484038952815161121c85826111b7565b9450611227836111cb565b925060208a01995050600181019050611203565b50829750879550505050505092915050565b6000602082019050818103600083015261126781846111d8565b905092915050565b600073ffffffffffffffffffffffffffffffffffffffff82169050919050565b600061129a8261126f565b9050919050565b6112aa8161128f565b81146112b557600080fd5b50565b6000813590506112c7816112a1565b92915050565b6000602082840312156112e3576112e2610d90565b5b60006112f1848285016112b8565b91505092915050565b60008115159050919050565b61130f816112fa565b82525050565b600060208201905061132a6000830184611306565b92915050565b600082825260208201905092915050565b600061134c8261108c565b6113568185611330565b93506113668185602086016110a8565b61136f81610dda565b840191505092915050565b600060408201905081810360008301526113948185611341565b905081810360208301526113a88184611341565b90509392505050565b600080600080608085870312156113cb576113ca610d90565b5b60006113d9878288016112b8565b94505060206113ea878288016112b8565b935050604085013567ffffffffffffffff81111561140b5761140a610d95565b5b61141787828801610ee8565b925050606085013567ffffffffffffffff81111561143857611437610d95565b5b61144487828801610ee8565b91505092959194509250565b6114598161128f565b82525050565b60006020820190506114746000830184611450565b92915050565b600081519050919050565b600082825260208201905092915050565b6000819050602082019050919050565b600060408301600083015184820360008601526114c382826110d2565b915050602083015184820360208601526114dd82826110d2565b9150508091505092915050565b60006114f683836114a6565b905092915050565b6000602082019050919050565b60006115168261147a565b6115208185611485565b93508360208202850161153285611496565b8060005b8581101561156e578484038952815161154f85826114ea565b945061155a836114fe565b925060208a01995050600181019050611536565b50829750879550505050505092915050565b6000602082019050818103600083015261159a818461150b565b905092915050565b7f4e487b7100000000000000000000000000000000000000000000000000000000600052602260045260246000fd5b600060028204905060018216806115e957607f821691505b6020821081036115fc576115fb6115a2565b5b50919050565b60008190508160005260206000209050919050565b60006020601f8301049050919050565b600082821b905092915050565b6000600883026116647fffffffffffffffffffffffffffffffffffffffffffffffffffffffffffffffff82611627565b61166e8683611627565b95508019841693508086168417925050509392505050565b6000819050919050565b60006116ab6116a66116a184610d9a565b611686565b610d9a565b9050919050565b6000819050919050565b6116c583611690565b6116d96116d1826116b2565b848454611634565b825550505050565b600090565b6116ee6116e1565b6116f98184846116bc565b505050565b5b8181101561171d576117126000826116e6565b6001810190506116ff565b5050565b601f8211156117625761173381611602565b61173c84611617565b8101602085101561174b578190505b61175f61175785611617565b8301826116fe565b50505b505050565b600082821c905092915050565b600061178560001984600802611767565b1980831691505092915050565b600061179e8383611774565b9150826002028217905092915050565b6117b78261108c565b67ffffffffffffffff8111156117d0576117cf610deb565b5b6117da82546115d1565b6117e5828285611721565b600060209050601f8311600181146118185760008415611806578287015190505b6118108582611792565b865550611878565b601f19841661182686611602565b60005b8281101561184e57848901518255600182019150602085019450602081019050611829565b8683101561186b5784890151611867601f891682611774565b8355505b6001600288020188555050505b505050505050565b7f4e487b7100000000000000000000000000000000000000000000000000000000600052603260045260246000fd5b7f4e487b7100000000000000000000000000000000000000000000000000000000600052601160045260246000fd5b60006118e982610d9a565b91507fffffffffffffffffffffffffffffffffffffffffffffffffffffffffffffffff820361191b5761191a6118af565b5b600182019050919050565b7f75736572206973206e6f742061646d696e000000000000000000000000000000600082015250565b600061195c601183611330565b915061196782611926565b602082019050919050565b6000602082019050818103600083015261198b8161194f565b905091905056fea264697066735822122003849f244b5b734c17ffe3e61955e0d8fa39f9b87cef46761ef37dd9036c882e64736f6c63430008130033",
  "immutableReferences": {},
  "source": "pragma solidity ^0.8.0;\r\n\r\ncontract VehicleLicenseVerifier {\r\n    address public admin;\r\n    //define datafields\r\n    struct Official{\r\n        string name;\r\n        string Dzongkhag;\r\n    }\r\n    address[] addressOfOfficials;\r\n    mapping(address=>Official) public Officials;\r\n    constructor() {\r\n        admin = msg.sender;\r\n    }\r\n\r\n    function verifyOfficial(address officialAddress) public view returns (bool) {\r\n    for (uint i = 0; i < addressOfOfficials.length; i++) {\r\n        if (addressOfOfficials[i] == officialAddress) {\r\n            return true;\r\n        }\r\n    }\r\n    return false;\r\n}\r\n\r\n    function isAdmin(address adminAddress) public view returns (bool) {\r\n        if (adminAddress == admin) {\r\n            return true;\r\n        } else {\r\n            return false;\r\n        }\r\n    }\r\n\r\n    function addOfficial(address adminAddress,address officialAddress,string memory name,string memory dzongkhag) public{\r\n        require( adminAddress == admin,\"user is not admin\");\r\n        Officials[officialAddress]=Official(name,dzongkhag); \r\n        addressOfOfficials.push(officialAddress);\r\n\r\n    }\r\n    function viewOfficial() public view returns(Official[] memory) {\r\n    Official[] memory officials = new Official[](addressOfOfficials.length);\r\n    for (uint i = 0; i < addressOfOfficials.length; i++) {\r\n        officials[i] = Officials[addressOfOfficials[i]];\r\n    }\r\n    return officials;\r\n}\r\n\r\n\r\n\r\n\r\nstruct licenseDetail{\r\n        string Name;\r\n        string Village;\r\n        string Dzongkhag;\r\n        string LicenseNo;\r\n        string IssuedDate;\r\n        string Validity;\r\n    }\r\n\r\n    //to add the licensedeatils to the blockchain\r\n    uint[] barcodeNumbers;\r\n    mapping(uint=>licenseDetail) licenseInfos;\r\n\r\n    function addLicenseInfo(uint _barcodeNumber,string memory _name,string memory _village,string memory _dzongkhag,string memory _licenseNo,string memory _issuedDate,string memory _validity) public{\r\n        licenseInfos[_barcodeNumber]=licenseDetail(_name,_village,_dzongkhag,_licenseNo,_issuedDate,_validity); \r\n        barcodeNumbers.push(_barcodeNumber);\r\n    }\r\n\r\n    //to view the license details after adding\r\n    function viewLicenseInfos() public view returns (licenseDetail[] memory) {\r\n    licenseDetail[] memory license = new licenseDetail[](barcodeNumbers.length);\r\n    for (uint i = 0; i < barcodeNumbers.length; i++) {\r\n        license[i] = licenseInfos[barcodeNumbers[i]];\r\n    }\r\n    return license;\r\n}\r\n\r\n}\r\n\r\n",
  "sourcePath": "D:\\Final Year Project\\Vehicle-License-Verification\\contracts\\VehicleLicenseVerifier.sol",
  "compiler": {
    "name": "solc",
    "version": "0.8.19+commit.7dd6d404.Emscripten.clang"
  },
  "schemaVersion": "3.4.13",
  "updatedAt": "2023-03-23T16:33:09.555Z",
  "networkType": "ethereum",
  "devdoc": {
    "kind": "dev",
    "methods": {},
    "version": 1
  },
  "userdoc": {
    "kind": "user",
    "methods": {},
    "version": 1
  }
}