{
  "contractName": "VehicleLicenseVerifier",
  "abi": [
    {
      "inputs": [],
      "stateMutability": "nonpayable",
      "type": "constructor"
    },
    {
      "inputs": [
        {
          "internalType": "address",
          "name": "",
          "type": "address"
        }
      ],
      "name": "Officials",
      "outputs": [
        {
          "internalType": "string",
          "name": "name",
          "type": "string"
        },
        {
          "internalType": "string",
          "name": "Dzongkhag",
          "type": "string"
        }
      ],
      "stateMutability": "view",
      "type": "function",
      "constant": true
    },
    {
      "inputs": [],
      "name": "admin",
      "outputs": [
        {
          "internalType": "address",
          "name": "",
          "type": "address"
        }
      ],
      "stateMutability": "view",
      "type": "function",
      "constant": true
    },
    {
      "inputs": [
        {
          "internalType": "address",
          "name": "adminAddress",
          "type": "address"
        }
      ],
      "name": "isAdmin",
      "outputs": [
        {
          "internalType": "bool",
          "name": "",
          "type": "bool"
        }
      ],
      "stateMutability": "view",
      "type": "function",
      "constant": true
    },
    {
      "inputs": [
        {
          "internalType": "address",
          "name": "adminAddress",
          "type": "address"
        },
        {
          "internalType": "address",
          "name": "officialAddress",
          "type": "address"
        },
        {
          "internalType": "string",
          "name": "name",
          "type": "string"
        },
        {
          "internalType": "string",
          "name": "dzongkhag",
          "type": "string"
        }
      ],
      "name": "addOfficial",
      "outputs": [],
      "stateMutability": "nonpayable",
      "type": "function"
    },
    {
      "inputs": [],
      "name": "viewOfficial",
      "outputs": [
        {
          "components": [
            {
              "internalType": "string",
              "name": "name",
              "type": "string"
            },
            {
              "internalType": "string",
              "name": "Dzongkhag",
              "type": "string"
            }
          ],
          "internalType": "struct VehicleLicenseVerifier.Official[]",
          "name": "",
          "type": "tuple[]"
        }
      ],
      "stateMutability": "view",
      "type": "function",
      "constant": true
    }
  ],
  "bytecode": "0x608060405234801561001057600080fd5b50336000806101000a81548173ffffffffffffffffffffffffffffffffffffffff021916908373ffffffffffffffffffffffffffffffffffffffff160217905550610ffa806100606000396000f3fe608060405234801561001057600080fd5b50600436106100575760003560e01c806324d7806c1461005c5780636e4aa2d81461008c5780638db7c12d146100bd578063f851a440146100d9578063fa33fab9146100f7575b600080fd5b61007660048036038101906100719190610730565b610115565b6040516100839190610778565b60405180910390f35b6100a660048036038101906100a19190610730565b61017e565b6040516100b4929190610823565b60405180910390f35b6100d760048036038101906100d2919061098f565b6102b2565b005b6100e161042c565b6040516100ee9190610a3d565b60405180910390f35b6100ff610450565b60405161010c9190610ba8565b60405180910390f35b60008060009054906101000a900473ffffffffffffffffffffffffffffffffffffffff1673ffffffffffffffffffffffffffffffffffffffff168273ffffffffffffffffffffffffffffffffffffffff16036101745760019050610179565b600090505b919050565b60026020528060005260406000206000915090508060000180546101a190610bf9565b80601f01602080910402602001604051908101604052809291908181526020018280546101cd90610bf9565b801561021a5780601f106101ef5761010080835404028352916020019161021a565b820191906000526020600020905b8154815290600101906020018083116101fd57829003601f168201915b50505050509080600101805461022f90610bf9565b80601f016020809104026020016040519081016040528092919081815260200182805461025b90610bf9565b80156102a85780601f1061027d576101008083540402835291602001916102a8565b820191906000526020600020905b81548152906001019060200180831161028b57829003601f168201915b5050505050905082565b60008054906101000a900473ffffffffffffffffffffffffffffffffffffffff1673ffffffffffffffffffffffffffffffffffffffff168473ffffffffffffffffffffffffffffffffffffffff1614610340576040517f08c379a000000000000000000000000000000000000000000000000000000000815260040161033790610c76565b60405180910390fd5b604051806040016040528083815260200182815250600260008573ffffffffffffffffffffffffffffffffffffffff1673ffffffffffffffffffffffffffffffffffffffff16815260200190815260200160002060008201518160000190816103a99190610e4c565b5060208201518160010190816103bf9190610e4c565b509050506001839080600181540180825580915050600190039060005260206000200160009091909190916101000a81548173ffffffffffffffffffffffffffffffffffffffff021916908373ffffffffffffffffffffffffffffffffffffffff16021790555050505050565b60008054906101000a900473ffffffffffffffffffffffffffffffffffffffff1681565b6060600060018054905067ffffffffffffffff81111561047357610472610864565b5b6040519080825280602002602001820160405280156104ac57816020015b6104996106a4565b8152602001906001900390816104915790505b50905060005b60018054905081101561069c5760026000600183815481106104d7576104d6610f1e565b5b9060005260206000200160009054906101000a900473ffffffffffffffffffffffffffffffffffffffff1673ffffffffffffffffffffffffffffffffffffffff1673ffffffffffffffffffffffffffffffffffffffff16815260200190815260200160002060405180604001604052908160008201805461055790610bf9565b80601f016020809104026020016040519081016040528092919081815260200182805461058390610bf9565b80156105d05780601f106105a5576101008083540402835291602001916105d0565b820191906000526020600020905b8154815290600101906020018083116105b357829003601f168201915b505050505081526020016001820180546105e990610bf9565b80601f016020809104026020016040519081016040528092919081815260200182805461061590610bf9565b80156106625780601f1061063757610100808354040283529160200191610662565b820191906000526020600020905b81548152906001019060200180831161064557829003601f168201915b50505050508152505082828151811061067e5761067d610f1e565b5b6020026020010181905250808061069490610f7c565b9150506104b2565b508091505090565b604051806040016040528060608152602001606081525090565b6000604051905090565b600080fd5b600080fd5b600073ffffffffffffffffffffffffffffffffffffffff82169050919050565b60006106fd826106d2565b9050919050565b61070d816106f2565b811461071857600080fd5b50565b60008135905061072a81610704565b92915050565b600060208284031215610746576107456106c8565b5b60006107548482850161071b565b91505092915050565b60008115159050919050565b6107728161075d565b82525050565b600060208201905061078d6000830184610769565b92915050565b600081519050919050565b600082825260208201905092915050565b60005b838110156107cd5780820151818401526020810190506107b2565b60008484015250505050565b6000601f19601f8301169050919050565b60006107f582610793565b6107ff818561079e565b935061080f8185602086016107af565b610818816107d9565b840191505092915050565b6000604082019050818103600083015261083d81856107ea565b9050818103602083015261085181846107ea565b90509392505050565b600080fd5b600080fd5b7f4e487b7100000000000000000000000000000000000000000000000000000000600052604160045260246000fd5b61089c826107d9565b810181811067ffffffffffffffff821117156108bb576108ba610864565b5b80604052505050565b60006108ce6106be565b90506108da8282610893565b919050565b600067ffffffffffffffff8211156108fa576108f9610864565b5b610903826107d9565b9050602081019050919050565b82818337600083830152505050565b600061093261092d846108df565b6108c4565b90508281526020810184848401111561094e5761094d61085f565b5b610959848285610910565b509392505050565b600082601f8301126109765761097561085a565b5b813561098684826020860161091f565b91505092915050565b600080600080608085870312156109a9576109a86106c8565b5b60006109b78782880161071b565b94505060206109c88782880161071b565b935050604085013567ffffffffffffffff8111156109e9576109e86106cd565b5b6109f587828801610961565b925050606085013567ffffffffffffffff811115610a1657610a156106cd565b5b610a2287828801610961565b91505092959194509250565b610a37816106f2565b82525050565b6000602082019050610a526000830184610a2e565b92915050565b600081519050919050565b600082825260208201905092915050565b6000819050602082019050919050565b600082825260208201905092915050565b6000610aa082610793565b610aaa8185610a84565b9350610aba8185602086016107af565b610ac3816107d9565b840191505092915050565b60006040830160008301518482036000860152610aeb8282610a95565b91505060208301518482036020860152610b058282610a95565b9150508091505092915050565b6000610b1e8383610ace565b905092915050565b6000602082019050919050565b6000610b3e82610a58565b610b488185610a63565b935083602082028501610b5a85610a74565b8060005b85811015610b965784840389528151610b778582610b12565b9450610b8283610b26565b925060208a01995050600181019050610b5e565b50829750879550505050505092915050565b60006020820190508181036000830152610bc28184610b33565b905092915050565b7f4e487b7100000000000000000000000000000000000000000000000000000000600052602260045260246000fd5b60006002820490506001821680610c1157607f821691505b602082108103610c2457610c23610bca565b5b50919050565b7f75736572206973206e6f742061646d696e000000000000000000000000000000600082015250565b6000610c6060118361079e565b9150610c6b82610c2a565b602082019050919050565b60006020820190508181036000830152610c8f81610c53565b9050919050565b60008190508160005260206000209050919050565b60006020601f8301049050919050565b600082821b905092915050565b600060088302610cf87fffffffffffffffffffffffffffffffffffffffffffffffffffffffffffffffff82610cbb565b610d028683610cbb565b95508019841693508086168417925050509392505050565b6000819050919050565b6000819050919050565b6000610d49610d44610d3f84610d1a565b610d24565b610d1a565b9050919050565b6000819050919050565b610d6383610d2e565b610d77610d6f82610d50565b848454610cc8565b825550505050565b600090565b610d8c610d7f565b610d97818484610d5a565b505050565b5b81811015610dbb57610db0600082610d84565b600181019050610d9d565b5050565b601f821115610e0057610dd181610c96565b610dda84610cab565b81016020851015610de9578190505b610dfd610df585610cab565b830182610d9c565b50505b505050565b600082821c905092915050565b6000610e2360001984600802610e05565b1980831691505092915050565b6000610e3c8383610e12565b9150826002028217905092915050565b610e5582610793565b67ffffffffffffffff811115610e6e57610e6d610864565b5b610e788254610bf9565b610e83828285610dbf565b600060209050601f831160018114610eb65760008415610ea4578287015190505b610eae8582610e30565b865550610f16565b601f198416610ec486610c96565b60005b82811015610eec57848901518255600182019150602085019450602081019050610ec7565b86831015610f095784890151610f05601f891682610e12565b8355505b6001600288020188555050505b505050505050565b7f4e487b7100000000000000000000000000000000000000000000000000000000600052603260045260246000fd5b7f4e487b7100000000000000000000000000000000000000000000000000000000600052601160045260246000fd5b6000610f8782610d1a565b91507fffffffffffffffffffffffffffffffffffffffffffffffffffffffffffffffff8203610fb957610fb8610f4d565b5b60018201905091905056fea2646970667358221220e675f2ed039a476a18400a107f76c7c2d5aa889510ef0f6bb932ff99030c9a6764736f6c63430008130033",
  "immutableReferences": {},
  "source": "pragma solidity ^0.8.0;\r\n\r\ncontract VehicleLicenseVerifier {\r\n    address public admin;\r\n    //define datafields\r\n    struct Official{\r\n        string name;\r\n        string Dzongkhag;\r\n    }\r\n    address[] addressOfOfficials;\r\n    mapping(address=>Official) public Officials;\r\n    constructor() {\r\n        admin = msg.sender;\r\n    }\r\n\r\n    function isAdmin(address adminAddress) public view returns (bool) {\r\n        if (adminAddress == admin) {\r\n            return true;\r\n        } else {\r\n            return false;\r\n        }\r\n    }\r\n\r\n    function addOfficial(address adminAddress,address officialAddress,string memory name,string memory dzongkhag) public{\r\n        require( adminAddress == admin,\"user is not admin\");\r\n        Officials[officialAddress]=Official(name,dzongkhag); \r\n        addressOfOfficials.push(officialAddress);\r\n\r\n    }\r\n    function viewOfficial() public view returns(Official[] memory) {\r\n    Official[] memory officials = new Official[](addressOfOfficials.length);\r\n    for (uint i = 0; i < addressOfOfficials.length; i++) {\r\n        officials[i] = Officials[addressOfOfficials[i]];\r\n    }\r\n    return officials;\r\n}\r\n}\r\n\r\n",
  "sourcePath": "D:\\Final Year Project\\Vehicle-License-Verification\\contracts\\VehicleLicenseVerifier.sol",
  "compiler": {
    "name": "solc",
    "version": "0.8.19+commit.7dd6d404.Emscripten.clang"
  },
  "schemaVersion": "3.4.13",
  "updatedAt": "2023-03-22T09:05:52.731Z",
  "networkType": "ethereum",
  "devdoc": {
    "kind": "dev",
    "methods": {},
    "version": 1
  },
  "userdoc": {
    "kind": "user",
    "methods": {},
    "version": 1
  }
}