{
  "contractName": "VehicleLicenseVerifier",
  "abi": [
    {
      "inputs": [],
      "stateMutability": "nonpayable",
      "type": "constructor"
    },
    {
      "inputs": [
        {
          "internalType": "address",
          "name": "",
          "type": "address"
        }
      ],
      "name": "Officials",
      "outputs": [
        {
          "internalType": "string",
          "name": "name",
          "type": "string"
        },
        {
          "internalType": "string",
          "name": "Dzongkhag",
          "type": "string"
        }
      ],
      "stateMutability": "view",
      "type": "function",
      "constant": true
    },
    {
      "inputs": [],
      "name": "admin",
      "outputs": [
        {
          "internalType": "address",
          "name": "",
          "type": "address"
        }
      ],
      "stateMutability": "view",
      "type": "function",
      "constant": true
    },
    {
      "inputs": [
        {
          "internalType": "address",
          "name": "officialAddress",
          "type": "address"
        }
      ],
      "name": "verifyOfficial",
      "outputs": [
        {
          "internalType": "bool",
          "name": "",
          "type": "bool"
        }
      ],
      "stateMutability": "view",
      "type": "function",
      "constant": true
    },
    {
      "inputs": [
        {
          "internalType": "address",
          "name": "adminAddress",
          "type": "address"
        }
      ],
      "name": "isAdmin",
      "outputs": [
        {
          "internalType": "bool",
          "name": "",
          "type": "bool"
        }
      ],
      "stateMutability": "view",
      "type": "function",
      "constant": true
    },
    {
      "inputs": [
        {
          "internalType": "address",
          "name": "adminAddress",
          "type": "address"
        },
        {
          "internalType": "address",
          "name": "officialAddress",
          "type": "address"
        },
        {
          "internalType": "string",
          "name": "name",
          "type": "string"
        },
        {
          "internalType": "string",
          "name": "dzongkhag",
          "type": "string"
        }
      ],
      "name": "addOfficial",
      "outputs": [],
      "stateMutability": "nonpayable",
      "type": "function"
    },
    {
      "inputs": [],
      "name": "viewOfficial",
      "outputs": [
        {
          "components": [
            {
              "internalType": "string",
              "name": "name",
              "type": "string"
            },
            {
              "internalType": "string",
              "name": "Dzongkhag",
              "type": "string"
            }
          ],
          "internalType": "struct VehicleLicenseVerifier.Official[]",
          "name": "",
          "type": "tuple[]"
        }
      ],
      "stateMutability": "view",
      "type": "function",
      "constant": true
    }
  ],
  "bytecode": "0x608060405234801561001057600080fd5b50336000806101000a81548173ffffffffffffffffffffffffffffffffffffffff021916908373ffffffffffffffffffffffffffffffffffffffff1602179055506110e3806100606000396000f3fe608060405234801561001057600080fd5b50600436106100625760003560e01c806324d7806c146100675780635d2246c4146100975780636e4aa2d8146100c75780638db7c12d146100f8578063f851a44014610114578063fa33fab914610132575b600080fd5b610081600480360381019061007c9190610819565b610150565b60405161008e9190610861565b60405180910390f35b6100b160048036038101906100ac9190610819565b6101b9565b6040516100be9190610861565b60405180910390f35b6100e160048036038101906100dc9190610819565b610267565b6040516100ef92919061090c565b60405180910390f35b610112600480360381019061010d9190610a78565b61039b565b005b61011c610515565b6040516101299190610b26565b60405180910390f35b61013a610539565b6040516101479190610c91565b60405180910390f35b60008060009054906101000a900473ffffffffffffffffffffffffffffffffffffffff1673ffffffffffffffffffffffffffffffffffffffff168273ffffffffffffffffffffffffffffffffffffffff16036101af57600190506101b4565b600090505b919050565b600080600090505b60018054905081101561025c578273ffffffffffffffffffffffffffffffffffffffff16600182815481106101f9576101f8610cb3565b5b9060005260206000200160009054906101000a900473ffffffffffffffffffffffffffffffffffffffff1673ffffffffffffffffffffffffffffffffffffffff1603610249576001915050610262565b808061025490610d1b565b9150506101c1565b50600090505b919050565b600260205280600052604060002060009150905080600001805461028a90610d92565b80601f01602080910402602001604051908101604052809291908181526020018280546102b690610d92565b80156103035780601f106102d857610100808354040283529160200191610303565b820191906000526020600020905b8154815290600101906020018083116102e657829003601f168201915b50505050509080600101805461031890610d92565b80601f016020809104026020016040519081016040528092919081815260200182805461034490610d92565b80156103915780601f1061036657610100808354040283529160200191610391565b820191906000526020600020905b81548152906001019060200180831161037457829003601f168201915b5050505050905082565b60008054906101000a900473ffffffffffffffffffffffffffffffffffffffff1673ffffffffffffffffffffffffffffffffffffffff168473ffffffffffffffffffffffffffffffffffffffff1614610429576040517f08c379a000000000000000000000000000000000000000000000000000000000815260040161042090610e0f565b60405180910390fd5b604051806040016040528083815260200182815250600260008573ffffffffffffffffffffffffffffffffffffffff1673ffffffffffffffffffffffffffffffffffffffff16815260200190815260200160002060008201518160000190816104929190610fdb565b5060208201518160010190816104a89190610fdb565b509050506001839080600181540180825580915050600190039060005260206000200160009091909190916101000a81548173ffffffffffffffffffffffffffffffffffffffff021916908373ffffffffffffffffffffffffffffffffffffffff16021790555050505050565b60008054906101000a900473ffffffffffffffffffffffffffffffffffffffff1681565b6060600060018054905067ffffffffffffffff81111561055c5761055b61094d565b5b60405190808252806020026020018201604052801561059557816020015b61058261078d565b81526020019060019003908161057a5790505b50905060005b6001805490508110156107855760026000600183815481106105c0576105bf610cb3565b5b9060005260206000200160009054906101000a900473ffffffffffffffffffffffffffffffffffffffff1673ffffffffffffffffffffffffffffffffffffffff1673ffffffffffffffffffffffffffffffffffffffff16815260200190815260200160002060405180604001604052908160008201805461064090610d92565b80601f016020809104026020016040519081016040528092919081815260200182805461066c90610d92565b80156106b95780601f1061068e576101008083540402835291602001916106b9565b820191906000526020600020905b81548152906001019060200180831161069c57829003601f168201915b505050505081526020016001820180546106d290610d92565b80601f01602080910402602001604051908101604052809291908181526020018280546106fe90610d92565b801561074b5780601f106107205761010080835404028352916020019161074b565b820191906000526020600020905b81548152906001019060200180831161072e57829003601f168201915b50505050508152505082828151811061076757610766610cb3565b5b6020026020010181905250808061077d90610d1b565b91505061059b565b508091505090565b604051806040016040528060608152602001606081525090565b6000604051905090565b600080fd5b600080fd5b600073ffffffffffffffffffffffffffffffffffffffff82169050919050565b60006107e6826107bb565b9050919050565b6107f6816107db565b811461080157600080fd5b50565b600081359050610813816107ed565b92915050565b60006020828403121561082f5761082e6107b1565b5b600061083d84828501610804565b91505092915050565b60008115159050919050565b61085b81610846565b82525050565b60006020820190506108766000830184610852565b92915050565b600081519050919050565b600082825260208201905092915050565b60005b838110156108b657808201518184015260208101905061089b565b60008484015250505050565b6000601f19601f8301169050919050565b60006108de8261087c565b6108e88185610887565b93506108f8818560208601610898565b610901816108c2565b840191505092915050565b6000604082019050818103600083015261092681856108d3565b9050818103602083015261093a81846108d3565b90509392505050565b600080fd5b600080fd5b7f4e487b7100000000000000000000000000000000000000000000000000000000600052604160045260246000fd5b610985826108c2565b810181811067ffffffffffffffff821117156109a4576109a361094d565b5b80604052505050565b60006109b76107a7565b90506109c3828261097c565b919050565b600067ffffffffffffffff8211156109e3576109e261094d565b5b6109ec826108c2565b9050602081019050919050565b82818337600083830152505050565b6000610a1b610a16846109c8565b6109ad565b905082815260208101848484011115610a3757610a36610948565b5b610a428482856109f9565b509392505050565b600082601f830112610a5f57610a5e610943565b5b8135610a6f848260208601610a08565b91505092915050565b60008060008060808587031215610a9257610a916107b1565b5b6000610aa087828801610804565b9450506020610ab187828801610804565b935050604085013567ffffffffffffffff811115610ad257610ad16107b6565b5b610ade87828801610a4a565b925050606085013567ffffffffffffffff811115610aff57610afe6107b6565b5b610b0b87828801610a4a565b91505092959194509250565b610b20816107db565b82525050565b6000602082019050610b3b6000830184610b17565b92915050565b600081519050919050565b600082825260208201905092915050565b6000819050602082019050919050565b600082825260208201905092915050565b6000610b898261087c565b610b938185610b6d565b9350610ba3818560208601610898565b610bac816108c2565b840191505092915050565b60006040830160008301518482036000860152610bd48282610b7e565b91505060208301518482036020860152610bee8282610b7e565b9150508091505092915050565b6000610c078383610bb7565b905092915050565b6000602082019050919050565b6000610c2782610b41565b610c318185610b4c565b935083602082028501610c4385610b5d565b8060005b85811015610c7f5784840389528151610c608582610bfb565b9450610c6b83610c0f565b925060208a01995050600181019050610c47565b50829750879550505050505092915050565b60006020820190508181036000830152610cab8184610c1c565b905092915050565b7f4e487b7100000000000000000000000000000000000000000000000000000000600052603260045260246000fd5b7f4e487b7100000000000000000000000000000000000000000000000000000000600052601160045260246000fd5b6000819050919050565b6000610d2682610d11565b91507fffffffffffffffffffffffffffffffffffffffffffffffffffffffffffffffff8203610d5857610d57610ce2565b5b600182019050919050565b7f4e487b7100000000000000000000000000000000000000000000000000000000600052602260045260246000fd5b60006002820490506001821680610daa57607f821691505b602082108103610dbd57610dbc610d63565b5b50919050565b7f75736572206973206e6f742061646d696e000000000000000000000000000000600082015250565b6000610df9601183610887565b9150610e0482610dc3565b602082019050919050565b60006020820190508181036000830152610e2881610dec565b9050919050565b60008190508160005260206000209050919050565b60006020601f8301049050919050565b600082821b905092915050565b600060088302610e917fffffffffffffffffffffffffffffffffffffffffffffffffffffffffffffffff82610e54565b610e9b8683610e54565b95508019841693508086168417925050509392505050565b6000819050919050565b6000610ed8610ed3610ece84610d11565b610eb3565b610d11565b9050919050565b6000819050919050565b610ef283610ebd565b610f06610efe82610edf565b848454610e61565b825550505050565b600090565b610f1b610f0e565b610f26818484610ee9565b505050565b5b81811015610f4a57610f3f600082610f13565b600181019050610f2c565b5050565b601f821115610f8f57610f6081610e2f565b610f6984610e44565b81016020851015610f78578190505b610f8c610f8485610e44565b830182610f2b565b50505b505050565b600082821c905092915050565b6000610fb260001984600802610f94565b1980831691505092915050565b6000610fcb8383610fa1565b9150826002028217905092915050565b610fe48261087c565b67ffffffffffffffff811115610ffd57610ffc61094d565b5b6110078254610d92565b611012828285610f4e565b600060209050601f8311600181146110455760008415611033578287015190505b61103d8582610fbf565b8655506110a5565b601f19841661105386610e2f565b60005b8281101561107b57848901518255600182019150602085019450602081019050611056565b868310156110985784890151611094601f891682610fa1565b8355505b6001600288020188555050505b50505050505056fea2646970667358221220ea327d4ffef40a719fb4adc6b41036a34c8444ddd3e4191efd4d14c670b2dcca64736f6c63430008130033",
  "immutableReferences": {},
  "source": "pragma solidity ^0.8.0;\r\n\r\ncontract VehicleLicenseVerifier {\r\n    address public admin;\r\n    //define datafields\r\n    struct Official{\r\n        string name;\r\n        string Dzongkhag;\r\n    }\r\n    address[] addressOfOfficials;\r\n    mapping(address=>Official) public Officials;\r\n    constructor() {\r\n        admin = msg.sender;\r\n    }\r\n\r\n    function verifyOfficial(address officialAddress) public view returns (bool) {\r\n    for (uint i = 0; i < addressOfOfficials.length; i++) {\r\n        if (addressOfOfficials[i] == officialAddress) {\r\n            return true;\r\n        }\r\n    }\r\n    return false;\r\n}\r\n\r\n    function isAdmin(address adminAddress) public view returns (bool) {\r\n        if (adminAddress == admin) {\r\n            return true;\r\n        } else {\r\n            return false;\r\n        }\r\n    }\r\n\r\n    function addOfficial(address adminAddress,address officialAddress,string memory name,string memory dzongkhag) public{\r\n        require( adminAddress == admin,\"user is not admin\");\r\n        Officials[officialAddress]=Official(name,dzongkhag); \r\n        addressOfOfficials.push(officialAddress);\r\n\r\n    }\r\n    function viewOfficial() public view returns(Official[] memory) {\r\n    Official[] memory officials = new Official[](addressOfOfficials.length);\r\n    for (uint i = 0; i < addressOfOfficials.length; i++) {\r\n        officials[i] = Officials[addressOfOfficials[i]];\r\n    }\r\n    return officials;\r\n}\r\n}\r\n\r\n",
  "sourcePath": "D:\\Final Year Project\\Vehicle-License-Verification\\contracts\\VehicleLicenseVerifier.sol",
  "compiler": {
    "name": "solc",
    "version": "0.8.19+commit.7dd6d404.Emscripten.clang"
  },
  "schemaVersion": "3.4.13",
  "updatedAt": "2023-03-22T18:57:21.546Z",
  "networkType": "ethereum",
  "devdoc": {
    "kind": "dev",
    "methods": {},
    "version": 1
  },
  "userdoc": {
    "kind": "user",
    "methods": {},
    "version": 1
  }
}