{
  "contractName": "VehicleLicenseVerifier",
  "abi": [
    {
      "inputs": [],
      "stateMutability": "nonpayable",
      "type": "constructor"
    },
    {
      "inputs": [
        {
          "internalType": "address",
          "name": "",
          "type": "address"
        }
      ],
      "name": "Officials",
      "outputs": [
        {
          "internalType": "string",
          "name": "name",
          "type": "string"
        },
        {
          "internalType": "string",
          "name": "Dzongkhag",
          "type": "string"
        }
      ],
      "stateMutability": "view",
      "type": "function",
      "constant": true
    },
    {
      "inputs": [],
      "name": "admin",
      "outputs": [
        {
          "internalType": "address",
          "name": "",
          "type": "address"
        }
      ],
      "stateMutability": "view",
      "type": "function",
      "constant": true
    },
    {
      "inputs": [
        {
          "internalType": "address",
          "name": "officialAddress",
          "type": "address"
        }
      ],
      "name": "verifyOfficial",
      "outputs": [
        {
          "internalType": "bool",
          "name": "",
          "type": "bool"
        }
      ],
      "stateMutability": "view",
      "type": "function",
      "constant": true
    },
    {
      "inputs": [
        {
          "internalType": "address",
          "name": "adminAddress",
          "type": "address"
        }
      ],
      "name": "isAdmin",
      "outputs": [
        {
          "internalType": "bool",
          "name": "",
          "type": "bool"
        }
      ],
      "stateMutability": "view",
      "type": "function",
      "constant": true
    },
    {
      "inputs": [
        {
          "internalType": "address",
          "name": "adminAddress",
          "type": "address"
        },
        {
          "internalType": "address",
          "name": "officialAddress",
          "type": "address"
        },
        {
          "internalType": "string",
          "name": "name",
          "type": "string"
        },
        {
          "internalType": "string",
          "name": "dzongkhag",
          "type": "string"
        }
      ],
      "name": "addOfficial",
      "outputs": [],
      "stateMutability": "nonpayable",
      "type": "function"
    },
    {
      "inputs": [],
      "name": "viewOfficial",
      "outputs": [
        {
          "components": [
            {
              "internalType": "string",
              "name": "name",
              "type": "string"
            },
            {
              "internalType": "string",
              "name": "Dzongkhag",
              "type": "string"
            }
          ],
          "internalType": "struct VehicleLicenseVerifier.Official[]",
          "name": "",
          "type": "tuple[]"
        }
      ],
      "stateMutability": "view",
      "type": "function",
      "constant": true
    },
    {
      "inputs": [
        {
          "internalType": "uint256",
          "name": "_barcodeNumber",
          "type": "uint256"
        },
        {
          "internalType": "string",
          "name": "_name",
          "type": "string"
        },
        {
          "internalType": "string",
          "name": "_village",
          "type": "string"
        },
        {
          "internalType": "string",
          "name": "_dzongkhag",
          "type": "string"
        },
        {
          "internalType": "string",
          "name": "_licenseNo",
          "type": "string"
        },
        {
          "internalType": "string",
          "name": "_issuedDate",
          "type": "string"
        },
        {
          "internalType": "string",
          "name": "_validity",
          "type": "string"
        }
      ],
      "name": "addLicenseInfo",
      "outputs": [],
      "stateMutability": "nonpayable",
      "type": "function"
    },
    {
      "inputs": [],
      "name": "viewLicenseInfos",
      "outputs": [
        {
          "components": [
            {
              "internalType": "string",
              "name": "Name",
              "type": "string"
            },
            {
              "internalType": "string",
              "name": "Village",
              "type": "string"
            },
            {
              "internalType": "string",
              "name": "Dzongkhag",
              "type": "string"
            },
            {
              "internalType": "string",
              "name": "LicenseNo",
              "type": "string"
            },
            {
              "internalType": "string",
              "name": "IssuedDate",
              "type": "string"
            },
            {
              "internalType": "string",
              "name": "Validity",
              "type": "string"
            },
            {
              "internalType": "uint256",
              "name": "Barcode",
              "type": "uint256"
            }
          ],
          "internalType": "struct VehicleLicenseVerifier.licenseDetail[]",
          "name": "",
          "type": "tuple[]"
        }
      ],
      "stateMutability": "view",
      "type": "function",
      "constant": true
    },
    {
      "inputs": [
        {
          "internalType": "uint256",
          "name": "_barcodeNumber",
          "type": "uint256"
        },
        {
          "internalType": "string",
          "name": "_name",
          "type": "string"
        },
        {
          "internalType": "string",
          "name": "_village",
          "type": "string"
        },
        {
          "internalType": "string",
          "name": "_dzongkhag",
          "type": "string"
        },
        {
          "internalType": "string",
          "name": "_licenseNo",
          "type": "string"
        },
        {
          "internalType": "string",
          "name": "_issuedDate",
          "type": "string"
        },
        {
          "internalType": "string",
          "name": "_validity",
          "type": "string"
        }
      ],
      "name": "editLicenseInfo",
      "outputs": [],
      "stateMutability": "nonpayable",
      "type": "function"
    }
  ],
  "bytecode": "0x608060405234801561001057600080fd5b50336000806101000a81548173ffffffffffffffffffffffffffffffffffffffff021916908373ffffffffffffffffffffffffffffffffffffffff160217905550611b12806100606000396000f3fe608060405234801561001057600080fd5b50600436106100935760003560e01c806367da939a1161006657806367da939a146101325780636e4aa2d81461014e5780638db7c12d1461017f578063f851a4401461019b578063fa33fab9146101b957610093565b8063027ab3911461009857806304f632c6146100b457806324d7806c146100d25780635d2246c414610102575b600080fd5b6100b260048036038101906100ad919061103e565b6101d7565b005b6100bc6102e0565b6040516100c99190611397565b60405180910390f35b6100ec60048036038101906100e79190611417565b61073a565b6040516100f9919061145f565b60405180910390f35b61011c60048036038101906101179190611417565b6107a3565b604051610129919061145f565b60405180910390f35b61014c6004803603810190610147919061103e565b610851565b005b61016860048036038101906101639190611417565b610931565b6040516101769291906114c4565b60405180910390f35b610199600480360381019061019491906114fb565b610a65565b005b6101a3610bdf565b6040516101b091906115a9565b60405180910390f35b6101c1610c03565b6040516101ce91906116ca565b60405180910390f35b6040518060e001604052808781526020018681526020018581526020018481526020018381526020018281526020018881525060046000898152602001908152602001600020600082015181600001908161023291906118f8565b50602082015181600101908161024891906118f8565b50604082015181600201908161025e91906118f8565b50606082015181600301908161027491906118f8565b50608082015181600401908161028a91906118f8565b5060a08201518160050190816102a091906118f8565b5060c08201518160060155905050600387908060018154018082558091505060019003906000526020600020016000909190919091505550505050505050565b6060600060038054905067ffffffffffffffff81111561030357610302610f13565b5b60405190808252806020026020018201604052801561033c57816020015b610329610e57565b8152602001906001900390816103215790505b50905060005b600380549050811015610732576004600060038381548110610367576103666119ca565b5b906000526020600020015481526020019081526020016000206040518060e001604052908160008201805461039b9061171b565b80601f01602080910402602001604051908101604052809291908181526020018280546103c79061171b565b80156104145780601f106103e957610100808354040283529160200191610414565b820191906000526020600020905b8154815290600101906020018083116103f757829003601f168201915b5050505050815260200160018201805461042d9061171b565b80601f01602080910402602001604051908101604052809291908181526020018280546104599061171b565b80156104a65780601f1061047b576101008083540402835291602001916104a6565b820191906000526020600020905b81548152906001019060200180831161048957829003601f168201915b505050505081526020016002820180546104bf9061171b565b80601f01602080910402602001604051908101604052809291908181526020018280546104eb9061171b565b80156105385780601f1061050d57610100808354040283529160200191610538565b820191906000526020600020905b81548152906001019060200180831161051b57829003601f168201915b505050505081526020016003820180546105519061171b565b80601f016020809104026020016040519081016040528092919081815260200182805461057d9061171b565b80156105ca5780601f1061059f576101008083540402835291602001916105ca565b820191906000526020600020905b8154815290600101906020018083116105ad57829003601f168201915b505050505081526020016004820180546105e39061171b565b80601f016020809104026020016040519081016040528092919081815260200182805461060f9061171b565b801561065c5780601f106106315761010080835404028352916020019161065c565b820191906000526020600020905b81548152906001019060200180831161063f57829003601f168201915b505050505081526020016005820180546106759061171b565b80601f01602080910402602001604051908101604052809291908181526020018280546106a19061171b565b80156106ee5780601f106106c3576101008083540402835291602001916106ee565b820191906000526020600020905b8154815290600101906020018083116106d157829003601f168201915b50505050508152602001600682015481525050828281518110610714576107136119ca565b5b6020026020010181905250808061072a90611a28565b915050610342565b508091505090565b60008060009054906101000a900473ffffffffffffffffffffffffffffffffffffffff1673ffffffffffffffffffffffffffffffffffffffff168273ffffffffffffffffffffffffffffffffffffffff1603610799576001905061079e565b600090505b919050565b600080600090505b600180549050811015610846578273ffffffffffffffffffffffffffffffffffffffff16600182815481106107e3576107e26119ca565b5b9060005260206000200160009054906101000a900473ffffffffffffffffffffffffffffffffffffffff1673ffffffffffffffffffffffffffffffffffffffff160361083357600191505061084c565b808061083e90611a28565b9150506107ab565b50600090505b919050565b6040518060e00160405280878152602001868152602001858152602001848152602001838152602001828152602001888152506004600089815260200190815260200160002060008201518160000190816108ac91906118f8565b5060208201518160010190816108c291906118f8565b5060408201518160020190816108d891906118f8565b5060608201518160030190816108ee91906118f8565b50608082015181600401908161090491906118f8565b5060a082015181600501908161091a91906118f8565b5060c0820151816006015590505050505050505050565b60026020528060005260406000206000915090508060000180546109549061171b565b80601f01602080910402602001604051908101604052809291908181526020018280546109809061171b565b80156109cd5780601f106109a2576101008083540402835291602001916109cd565b820191906000526020600020905b8154815290600101906020018083116109b057829003601f168201915b5050505050908060010180546109e29061171b565b80601f0160208091040260200160405190810160405280929190818152602001828054610a0e9061171b565b8015610a5b5780601f10610a3057610100808354040283529160200191610a5b565b820191906000526020600020905b815481529060010190602001808311610a3e57829003601f168201915b5050505050905082565b60008054906101000a900473ffffffffffffffffffffffffffffffffffffffff1673ffffffffffffffffffffffffffffffffffffffff168473ffffffffffffffffffffffffffffffffffffffff1614610af3576040517f08c379a0000000000000000000000000000000000000000000000000000000008152600401610aea90611abc565b60405180910390fd5b604051806040016040528083815260200182815250600260008573ffffffffffffffffffffffffffffffffffffffff1673ffffffffffffffffffffffffffffffffffffffff1681526020019081526020016000206000820151816000019081610b5c91906118f8565b506020820151816001019081610b7291906118f8565b509050506001839080600181540180825580915050600190039060005260206000200160009091909190916101000a81548173ffffffffffffffffffffffffffffffffffffffff021916908373ffffffffffffffffffffffffffffffffffffffff16021790555050505050565b60008054906101000a900473ffffffffffffffffffffffffffffffffffffffff1681565b6060600060018054905067ffffffffffffffff811115610c2657610c25610f13565b5b604051908082528060200260200182016040528015610c5f57816020015b610c4c610e94565b815260200190600190039081610c445790505b50905060005b600180549050811015610e4f576002600060018381548110610c8a57610c896119ca565b5b9060005260206000200160009054906101000a900473ffffffffffffffffffffffffffffffffffffffff1673ffffffffffffffffffffffffffffffffffffffff1673ffffffffffffffffffffffffffffffffffffffff168152602001908152602001600020604051806040016040529081600082018054610d0a9061171b565b80601f0160208091040260200160405190810160405280929190818152602001828054610d369061171b565b8015610d835780601f10610d5857610100808354040283529160200191610d83565b820191906000526020600020905b815481529060010190602001808311610d6657829003601f168201915b50505050508152602001600182018054610d9c9061171b565b80601f0160208091040260200160405190810160405280929190818152602001828054610dc89061171b565b8015610e155780601f10610dea57610100808354040283529160200191610e15565b820191906000526020600020905b815481529060010190602001808311610df857829003601f168201915b505050505081525050828281518110610e3157610e306119ca565b5b60200260200101819052508080610e4790611a28565b915050610c65565b508091505090565b6040518060e00160405280606081526020016060815260200160608152602001606081526020016060815260200160608152602001600081525090565b604051806040016040528060608152602001606081525090565b6000604051905090565b600080fd5b600080fd5b6000819050919050565b610ed581610ec2565b8114610ee057600080fd5b50565b600081359050610ef281610ecc565b92915050565b600080fd5b600080fd5b6000601f19601f8301169050919050565b7f4e487b7100000000000000000000000000000000000000000000000000000000600052604160045260246000fd5b610f4b82610f02565b810181811067ffffffffffffffff82111715610f6a57610f69610f13565b5b80604052505050565b6000610f7d610eae565b9050610f898282610f42565b919050565b600067ffffffffffffffff821115610fa957610fa8610f13565b5b610fb282610f02565b9050602081019050919050565b82818337600083830152505050565b6000610fe1610fdc84610f8e565b610f73565b905082815260208101848484011115610ffd57610ffc610efd565b5b611008848285610fbf565b509392505050565b600082601f83011261102557611024610ef8565b5b8135611035848260208601610fce565b91505092915050565b600080600080600080600060e0888a03121561105d5761105c610eb8565b5b600061106b8a828b01610ee3565b975050602088013567ffffffffffffffff81111561108c5761108b610ebd565b5b6110988a828b01611010565b965050604088013567ffffffffffffffff8111156110b9576110b8610ebd565b5b6110c58a828b01611010565b955050606088013567ffffffffffffffff8111156110e6576110e5610ebd565b5b6110f28a828b01611010565b945050608088013567ffffffffffffffff81111561111357611112610ebd565b5b61111f8a828b01611010565b93505060a088013567ffffffffffffffff8111156111405761113f610ebd565b5b61114c8a828b01611010565b92505060c088013567ffffffffffffffff81111561116d5761116c610ebd565b5b6111798a828b01611010565b91505092959891949750929550565b600081519050919050565b600082825260208201905092915050565b6000819050602082019050919050565b600081519050919050565b600082825260208201905092915050565b60005b838110156111ee5780820151818401526020810190506111d3565b60008484015250505050565b6000611205826111b4565b61120f81856111bf565b935061121f8185602086016111d0565b61122881610f02565b840191505092915050565b61123c81610ec2565b82525050565b600060e083016000830151848203600086015261125f82826111fa565b9150506020830151848203602086015261127982826111fa565b9150506040830151848203604086015261129382826111fa565b915050606083015184820360608601526112ad82826111fa565b915050608083015184820360808601526112c782826111fa565b91505060a083015184820360a08601526112e182826111fa565b91505060c08301516112f660c0860182611233565b508091505092915050565b600061130d8383611242565b905092915050565b6000602082019050919050565b600061132d82611188565b6113378185611193565b935083602082028501611349856111a4565b8060005b8581101561138557848403895281516113668582611301565b945061137183611315565b925060208a0199505060018101905061134d565b50829750879550505050505092915050565b600060208201905081810360008301526113b18184611322565b905092915050565b600073ffffffffffffffffffffffffffffffffffffffff82169050919050565b60006113e4826113b9565b9050919050565b6113f4816113d9565b81146113ff57600080fd5b50565b600081359050611411816113eb565b92915050565b60006020828403121561142d5761142c610eb8565b5b600061143b84828501611402565b91505092915050565b60008115159050919050565b61145981611444565b82525050565b60006020820190506114746000830184611450565b92915050565b600082825260208201905092915050565b6000611496826111b4565b6114a0818561147a565b93506114b08185602086016111d0565b6114b981610f02565b840191505092915050565b600060408201905081810360008301526114de818561148b565b905081810360208301526114f2818461148b565b90509392505050565b6000806000806080858703121561151557611514610eb8565b5b600061152387828801611402565b945050602061153487828801611402565b935050604085013567ffffffffffffffff81111561155557611554610ebd565b5b61156187828801611010565b925050606085013567ffffffffffffffff81111561158257611581610ebd565b5b61158e87828801611010565b91505092959194509250565b6115a3816113d9565b82525050565b60006020820190506115be600083018461159a565b92915050565b600081519050919050565b600082825260208201905092915050565b6000819050602082019050919050565b6000604083016000830151848203600086015261160d82826111fa565b9150506020830151848203602086015261162782826111fa565b9150508091505092915050565b600061164083836115f0565b905092915050565b6000602082019050919050565b6000611660826115c4565b61166a81856115cf565b93508360208202850161167c856115e0565b8060005b858110156116b857848403895281516116998582611634565b94506116a483611648565b925060208a01995050600181019050611680565b50829750879550505050505092915050565b600060208201905081810360008301526116e48184611655565b905092915050565b7f4e487b7100000000000000000000000000000000000000000000000000000000600052602260045260246000fd5b6000600282049050600182168061173357607f821691505b602082108103611746576117456116ec565b5b50919050565b60008190508160005260206000209050919050565b60006020601f8301049050919050565b600082821b905092915050565b6000600883026117ae7fffffffffffffffffffffffffffffffffffffffffffffffffffffffffffffffff82611771565b6117b88683611771565b95508019841693508086168417925050509392505050565b6000819050919050565b60006117f56117f06117eb84610ec2565b6117d0565b610ec2565b9050919050565b6000819050919050565b61180f836117da565b61182361181b826117fc565b84845461177e565b825550505050565b600090565b61183861182b565b611843818484611806565b505050565b5b818110156118675761185c600082611830565b600181019050611849565b5050565b601f8211156118ac5761187d8161174c565b61188684611761565b81016020851015611895578190505b6118a96118a185611761565b830182611848565b50505b505050565b600082821c905092915050565b60006118cf600019846008026118b1565b1980831691505092915050565b60006118e883836118be565b9150826002028217905092915050565b611901826111b4565b67ffffffffffffffff81111561191a57611919610f13565b5b611924825461171b565b61192f82828561186b565b600060209050601f8311600181146119625760008415611950578287015190505b61195a85826118dc565b8655506119c2565b601f1984166119708661174c565b60005b8281101561199857848901518255600182019150602085019450602081019050611973565b868310156119b557848901516119b1601f8916826118be565b8355505b6001600288020188555050505b505050505050565b7f4e487b7100000000000000000000000000000000000000000000000000000000600052603260045260246000fd5b7f4e487b7100000000000000000000000000000000000000000000000000000000600052601160045260246000fd5b6000611a3382610ec2565b91507fffffffffffffffffffffffffffffffffffffffffffffffffffffffffffffffff8203611a6557611a646119f9565b5b600182019050919050565b7f75736572206973206e6f742061646d696e000000000000000000000000000000600082015250565b6000611aa660118361147a565b9150611ab182611a70565b602082019050919050565b60006020820190508181036000830152611ad581611a99565b905091905056fea26469706673582212208e4896fffc60963e6644f565d6048e743b8d183d764b7bef9d5cee4f401fffb664736f6c63430008130033",
  "immutableReferences": {},
  "source": "pragma solidity ^0.8.0;\r\n\r\ncontract VehicleLicenseVerifier {\r\n    address public admin;\r\n    //define datafields\r\n    struct Official{\r\n        string name;\r\n        string Dzongkhag;\r\n    }\r\n    address[] addressOfOfficials;\r\n    mapping(address=>Official) public Officials;\r\n    constructor() {\r\n        admin = msg.sender;\r\n    }\r\n    \r\n\r\n    function verifyOfficial(address officialAddress) public view returns (bool) {\r\n    for (uint i = 0; i < addressOfOfficials.length; i++) {\r\n        if (addressOfOfficials[i] == officialAddress) {\r\n            return true;\r\n        }\r\n    }\r\n    return false;\r\n}\r\n\r\n    function isAdmin(address adminAddress) public view returns (bool) {\r\n        if (adminAddress == admin) {\r\n            return true;\r\n        } else {\r\n            return false;\r\n        }\r\n    }\r\n\r\n    function addOfficial(address adminAddress,address officialAddress,string memory name,string memory dzongkhag) public{\r\n        require( adminAddress == admin,\"user is not admin\");\r\n        Officials[officialAddress]=Official(name,dzongkhag); \r\n        addressOfOfficials.push(officialAddress);\r\n\r\n    }\r\n    function viewOfficial() public view returns(Official[] memory) {\r\n    Official[] memory officials = new Official[](addressOfOfficials.length);\r\n    for (uint i = 0; i < addressOfOfficials.length; i++) {\r\n        officials[i] = Officials[addressOfOfficials[i]];\r\n    }\r\n    return officials;\r\n}\r\n\r\n\r\n\r\n\r\n\r\n\r\n\r\nstruct licenseDetail{\r\n        string Name;\r\n        string Village;\r\n        string Dzongkhag;\r\n        string LicenseNo;\r\n        string IssuedDate;\r\n        string Validity;\r\n        uint Barcode;\r\n    }\r\n\r\n    //to add the licensedeatils to the blockchain\r\n    uint[] barcodeNumbers;\r\n    mapping(uint=>licenseDetail) licenseInfos;\r\n\r\n    function addLicenseInfo(uint _barcodeNumber,string memory _name,string memory _village,string memory _dzongkhag,string memory _licenseNo,string memory _issuedDate,string memory _validity) public{\r\n        licenseInfos[_barcodeNumber]=licenseDetail(_name,_village,_dzongkhag,_licenseNo,_issuedDate,_validity,_barcodeNumber); \r\n        barcodeNumbers.push(_barcodeNumber);\r\n    }\r\n\r\n    //to view the license details after adding\r\n    function viewLicenseInfos() public view returns (licenseDetail[] memory) {\r\n    licenseDetail[] memory license = new licenseDetail[](barcodeNumbers.length);\r\n    for (uint i = 0; i < barcodeNumbers.length; i++) {\r\n        license[i] = licenseInfos[barcodeNumbers[i]];\r\n    }\r\n    return license;\r\n}\r\n\r\n\r\nfunction editLicenseInfo(uint _barcodeNumber, string memory _name, string memory _village, string memory _dzongkhag, string memory _licenseNo, string memory _issuedDate, string memory _validity) public {\r\n    \r\n    licenseInfos[_barcodeNumber] = licenseDetail(_name, _village, _dzongkhag, _licenseNo, _issuedDate, _validity, _barcodeNumber);\r\n}\r\n\r\n\r\n    \r\n\r\n\r\n}\r\n\r\n",
  "sourcePath": "C:\\Users\\97517\\Desktop\\F2\\Final-Year-Project-eth-\\Vehicle-License-Verification\\contracts\\VehicleLicenseVerifier.sol",
  "compiler": {
    "name": "solc",
    "version": "0.8.19+commit.7dd6d404.Emscripten.clang"
  },
  "schemaVersion": "3.4.13",
  "updatedAt": "2023-04-05T17:06:40.137Z",
  "networkType": "ethereum",
  "devdoc": {
    "kind": "dev",
    "methods": {},
    "version": 1
  },
  "userdoc": {
    "kind": "user",
    "methods": {},
    "version": 1
  }
}