{
  "contractName": "VehicleLicenseVerifier",
  "abi": [
    {
      "inputs": [],
      "stateMutability": "nonpayable",
      "type": "constructor"
    },
    {
      "inputs": [
        {
          "internalType": "address",
          "name": "",
          "type": "address"
        }
      ],
      "name": "Officials",
      "outputs": [
        {
          "internalType": "string",
          "name": "name",
          "type": "string"
        },
        {
          "internalType": "string",
          "name": "Dzongkhag",
          "type": "string"
        }
      ],
      "stateMutability": "view",
      "type": "function",
      "constant": true
    },
    {
      "inputs": [],
      "name": "admin",
      "outputs": [
        {
          "internalType": "address",
          "name": "",
          "type": "address"
        }
      ],
      "stateMutability": "view",
      "type": "function",
      "constant": true
    },
    {
      "inputs": [
        {
          "internalType": "address",
          "name": "officialAddress",
          "type": "address"
        }
      ],
      "name": "verifyOfficial",
      "outputs": [
        {
          "internalType": "bool",
          "name": "",
          "type": "bool"
        }
      ],
      "stateMutability": "view",
      "type": "function",
      "constant": true
    },
    {
      "inputs": [
        {
          "internalType": "address",
          "name": "adminAddress",
          "type": "address"
        }
      ],
      "name": "isAdmin",
      "outputs": [
        {
          "internalType": "bool",
          "name": "",
          "type": "bool"
        }
      ],
      "stateMutability": "view",
      "type": "function",
      "constant": true
    },
    {
      "inputs": [
        {
          "internalType": "address",
          "name": "adminAddress",
          "type": "address"
        },
        {
          "internalType": "address",
          "name": "officialAddress",
          "type": "address"
        },
        {
          "internalType": "string",
          "name": "name",
          "type": "string"
        },
        {
          "internalType": "string",
          "name": "dzongkhag",
          "type": "string"
        }
      ],
      "name": "addOfficial",
      "outputs": [],
      "stateMutability": "nonpayable",
      "type": "function"
    },
    {
      "inputs": [],
      "name": "viewOfficial",
      "outputs": [
        {
          "components": [
            {
              "internalType": "string",
              "name": "name",
              "type": "string"
            },
            {
              "internalType": "string",
              "name": "Dzongkhag",
              "type": "string"
            }
          ],
          "internalType": "struct VehicleLicenseVerifier.Official[]",
          "name": "",
          "type": "tuple[]"
        }
      ],
      "stateMutability": "view",
      "type": "function",
      "constant": true
    },
    {
      "inputs": [
        {
          "internalType": "uint256",
          "name": "_barcodeNumber",
          "type": "uint256"
        },
        {
          "internalType": "string",
          "name": "_name",
          "type": "string"
        },
        {
          "internalType": "string",
          "name": "_village",
          "type": "string"
        },
        {
          "internalType": "string",
          "name": "_dzongkhag",
          "type": "string"
        },
        {
          "internalType": "string",
          "name": "_licenseNo",
          "type": "string"
        },
        {
          "internalType": "string",
          "name": "_issuedDate",
          "type": "string"
        },
        {
          "internalType": "string",
          "name": "_validity",
          "type": "string"
        }
      ],
      "name": "addLicenseInfo",
      "outputs": [],
      "stateMutability": "nonpayable",
      "type": "function"
    },
    {
      "inputs": [],
      "name": "getAllBarcodeNumbers",
      "outputs": [
        {
          "internalType": "uint256[]",
          "name": "",
          "type": "uint256[]"
        }
      ],
      "stateMutability": "view",
      "type": "function",
      "constant": true
    },
    {
      "inputs": [],
      "name": "viewLicenseInfos",
      "outputs": [
        {
          "components": [
            {
              "internalType": "string",
              "name": "Name",
              "type": "string"
            },
            {
              "internalType": "string",
              "name": "Village",
              "type": "string"
            },
            {
              "internalType": "string",
              "name": "Dzongkhag",
              "type": "string"
            },
            {
              "internalType": "string",
              "name": "LicenseNo",
              "type": "string"
            },
            {
              "internalType": "string",
              "name": "IssuedDate",
              "type": "string"
            },
            {
              "internalType": "string",
              "name": "Validity",
              "type": "string"
            },
            {
              "internalType": "uint256",
              "name": "Barcode",
              "type": "uint256"
            }
          ],
          "internalType": "struct VehicleLicenseVerifier.licenseDetail[]",
          "name": "",
          "type": "tuple[]"
        }
      ],
      "stateMutability": "view",
      "type": "function",
      "constant": true
    },
    {
      "inputs": [
        {
          "internalType": "uint256",
          "name": "_barcodeNumber",
          "type": "uint256"
        },
        {
          "internalType": "string",
          "name": "_name",
          "type": "string"
        },
        {
          "internalType": "string",
          "name": "_village",
          "type": "string"
        },
        {
          "internalType": "string",
          "name": "_dzongkhag",
          "type": "string"
        },
        {
          "internalType": "string",
          "name": "_licenseNo",
          "type": "string"
        },
        {
          "internalType": "string",
          "name": "_issuedDate",
          "type": "string"
        },
        {
          "internalType": "string",
          "name": "_validity",
          "type": "string"
        }
      ],
      "name": "editLicenseInfo",
      "outputs": [],
      "stateMutability": "nonpayable",
      "type": "function"
    }
  ],
  "bytecode": "0x608060405234801561001057600080fd5b50336000806101000a81548173ffffffffffffffffffffffffffffffffffffffff021916908373ffffffffffffffffffffffffffffffffffffffff160217905550611c64806100606000396000f3fe608060405234801561001057600080fd5b506004361061009e5760003560e01c80636e4aa2d8116100665780636e4aa2d8146101595780638db7c12d1461018a578063be9b5b31146101a6578063f851a440146101c4578063fa33fab9146101e25761009e565b8063027ab391146100a357806304f632c6146100bf57806324d7806c146100dd5780635d2246c41461010d57806367da939a1461013d575b600080fd5b6100bd60048036038101906100b891906110bf565b610200565b005b6100c7610309565b6040516100d49190611418565b60405180910390f35b6100f760048036038101906100f29190611498565b610763565b60405161010491906114e0565b60405180910390f35b61012760048036038101906101229190611498565b6107cc565b60405161013491906114e0565b60405180910390f35b610157600480360381019061015291906110bf565b61087a565b005b610173600480360381019061016e9190611498565b61095a565b604051610181929190611545565b60405180910390f35b6101a4600480360381019061019f919061157c565b610a8e565b005b6101ae610c08565b6040516101bb91906116ca565b60405180910390f35b6101cc610c60565b6040516101d991906116fb565b60405180910390f35b6101ea610c84565b6040516101f7919061181c565b60405180910390f35b6040518060e001604052808781526020018681526020018581526020018481526020018381526020018281526020018881525060046000898152602001908152602001600020600082015181600001908161025b9190611a4a565b5060208201518160010190816102719190611a4a565b5060408201518160020190816102879190611a4a565b50606082015181600301908161029d9190611a4a565b5060808201518160040190816102b39190611a4a565b5060a08201518160050190816102c99190611a4a565b5060c08201518160060155905050600387908060018154018082558091505060019003906000526020600020016000909190919091505550505050505050565b6060600060038054905067ffffffffffffffff81111561032c5761032b610f94565b5b60405190808252806020026020018201604052801561036557816020015b610352610ed8565b81526020019060019003908161034a5790505b50905060005b60038054905081101561075b5760046000600383815481106103905761038f611b1c565b5b906000526020600020015481526020019081526020016000206040518060e00160405290816000820180546103c49061186d565b80601f01602080910402602001604051908101604052809291908181526020018280546103f09061186d565b801561043d5780601f106104125761010080835404028352916020019161043d565b820191906000526020600020905b81548152906001019060200180831161042057829003601f168201915b505050505081526020016001820180546104569061186d565b80601f01602080910402602001604051908101604052809291908181526020018280546104829061186d565b80156104cf5780601f106104a4576101008083540402835291602001916104cf565b820191906000526020600020905b8154815290600101906020018083116104b257829003601f168201915b505050505081526020016002820180546104e89061186d565b80601f01602080910402602001604051908101604052809291908181526020018280546105149061186d565b80156105615780601f1061053657610100808354040283529160200191610561565b820191906000526020600020905b81548152906001019060200180831161054457829003601f168201915b5050505050815260200160038201805461057a9061186d565b80601f01602080910402602001604051908101604052809291908181526020018280546105a69061186d565b80156105f35780601f106105c8576101008083540402835291602001916105f3565b820191906000526020600020905b8154815290600101906020018083116105d657829003601f168201915b5050505050815260200160048201805461060c9061186d565b80601f01602080910402602001604051908101604052809291908181526020018280546106389061186d565b80156106855780601f1061065a57610100808354040283529160200191610685565b820191906000526020600020905b81548152906001019060200180831161066857829003601f168201915b5050505050815260200160058201805461069e9061186d565b80601f01602080910402602001604051908101604052809291908181526020018280546106ca9061186d565b80156107175780601f106106ec57610100808354040283529160200191610717565b820191906000526020600020905b8154815290600101906020018083116106fa57829003601f168201915b5050505050815260200160068201548152505082828151811061073d5761073c611b1c565b5b6020026020010181905250808061075390611b7a565b91505061036b565b508091505090565b60008060009054906101000a900473ffffffffffffffffffffffffffffffffffffffff1673ffffffffffffffffffffffffffffffffffffffff168273ffffffffffffffffffffffffffffffffffffffff16036107c257600190506107c7565b600090505b919050565b600080600090505b60018054905081101561086f578273ffffffffffffffffffffffffffffffffffffffff166001828154811061080c5761080b611b1c565b5b9060005260206000200160009054906101000a900473ffffffffffffffffffffffffffffffffffffffff1673ffffffffffffffffffffffffffffffffffffffff160361085c576001915050610875565b808061086790611b7a565b9150506107d4565b50600090505b919050565b6040518060e00160405280878152602001868152602001858152602001848152602001838152602001828152602001888152506004600089815260200190815260200160002060008201518160000190816108d59190611a4a565b5060208201518160010190816108eb9190611a4a565b5060408201518160020190816109019190611a4a565b5060608201518160030190816109179190611a4a565b50608082015181600401908161092d9190611a4a565b5060a08201518160050190816109439190611a4a565b5060c0820151816006015590505050505050505050565b600260205280600052604060002060009150905080600001805461097d9061186d565b80601f01602080910402602001604051908101604052809291908181526020018280546109a99061186d565b80156109f65780601f106109cb576101008083540402835291602001916109f6565b820191906000526020600020905b8154815290600101906020018083116109d957829003601f168201915b505050505090806001018054610a0b9061186d565b80601f0160208091040260200160405190810160405280929190818152602001828054610a379061186d565b8015610a845780601f10610a5957610100808354040283529160200191610a84565b820191906000526020600020905b815481529060010190602001808311610a6757829003601f168201915b5050505050905082565b60008054906101000a900473ffffffffffffffffffffffffffffffffffffffff1673ffffffffffffffffffffffffffffffffffffffff168473ffffffffffffffffffffffffffffffffffffffff1614610b1c576040517f08c379a0000000000000000000000000000000000000000000000000000000008152600401610b1390611c0e565b60405180910390fd5b604051806040016040528083815260200182815250600260008573ffffffffffffffffffffffffffffffffffffffff1673ffffffffffffffffffffffffffffffffffffffff1681526020019081526020016000206000820151816000019081610b859190611a4a565b506020820151816001019081610b9b9190611a4a565b509050506001839080600181540180825580915050600190039060005260206000200160009091909190916101000a81548173ffffffffffffffffffffffffffffffffffffffff021916908373ffffffffffffffffffffffffffffffffffffffff16021790555050505050565b60606003805480602002602001604051908101604052809291908181526020018280548015610c5657602002820191906000526020600020905b815481526020019060010190808311610c42575b5050505050905090565b60008054906101000a900473ffffffffffffffffffffffffffffffffffffffff1681565b6060600060018054905067ffffffffffffffff811115610ca757610ca6610f94565b5b604051908082528060200260200182016040528015610ce057816020015b610ccd610f15565b815260200190600190039081610cc55790505b50905060005b600180549050811015610ed0576002600060018381548110610d0b57610d0a611b1c565b5b9060005260206000200160009054906101000a900473ffffffffffffffffffffffffffffffffffffffff1673ffffffffffffffffffffffffffffffffffffffff1673ffffffffffffffffffffffffffffffffffffffff168152602001908152602001600020604051806040016040529081600082018054610d8b9061186d565b80601f0160208091040260200160405190810160405280929190818152602001828054610db79061186d565b8015610e045780601f10610dd957610100808354040283529160200191610e04565b820191906000526020600020905b815481529060010190602001808311610de757829003601f168201915b50505050508152602001600182018054610e1d9061186d565b80601f0160208091040260200160405190810160405280929190818152602001828054610e499061186d565b8015610e965780601f10610e6b57610100808354040283529160200191610e96565b820191906000526020600020905b815481529060010190602001808311610e7957829003601f168201915b505050505081525050828281518110610eb257610eb1611b1c565b5b60200260200101819052508080610ec890611b7a565b915050610ce6565b508091505090565b6040518060e00160405280606081526020016060815260200160608152602001606081526020016060815260200160608152602001600081525090565b604051806040016040528060608152602001606081525090565b6000604051905090565b600080fd5b600080fd5b6000819050919050565b610f5681610f43565b8114610f6157600080fd5b50565b600081359050610f7381610f4d565b92915050565b600080fd5b600080fd5b6000601f19601f8301169050919050565b7f4e487b7100000000000000000000000000000000000000000000000000000000600052604160045260246000fd5b610fcc82610f83565b810181811067ffffffffffffffff82111715610feb57610fea610f94565b5b80604052505050565b6000610ffe610f2f565b905061100a8282610fc3565b919050565b600067ffffffffffffffff82111561102a57611029610f94565b5b61103382610f83565b9050602081019050919050565b82818337600083830152505050565b600061106261105d8461100f565b610ff4565b90508281526020810184848401111561107e5761107d610f7e565b5b611089848285611040565b509392505050565b600082601f8301126110a6576110a5610f79565b5b81356110b684826020860161104f565b91505092915050565b600080600080600080600060e0888a0312156110de576110dd610f39565b5b60006110ec8a828b01610f64565b975050602088013567ffffffffffffffff81111561110d5761110c610f3e565b5b6111198a828b01611091565b965050604088013567ffffffffffffffff81111561113a57611139610f3e565b5b6111468a828b01611091565b955050606088013567ffffffffffffffff81111561116757611166610f3e565b5b6111738a828b01611091565b945050608088013567ffffffffffffffff81111561119457611193610f3e565b5b6111a08a828b01611091565b93505060a088013567ffffffffffffffff8111156111c1576111c0610f3e565b5b6111cd8a828b01611091565b92505060c088013567ffffffffffffffff8111156111ee576111ed610f3e565b5b6111fa8a828b01611091565b91505092959891949750929550565b600081519050919050565b600082825260208201905092915050565b6000819050602082019050919050565b600081519050919050565b600082825260208201905092915050565b60005b8381101561126f578082015181840152602081019050611254565b60008484015250505050565b600061128682611235565b6112908185611240565b93506112a0818560208601611251565b6112a981610f83565b840191505092915050565b6112bd81610f43565b82525050565b600060e08301600083015184820360008601526112e0828261127b565b915050602083015184820360208601526112fa828261127b565b91505060408301518482036040860152611314828261127b565b9150506060830151848203606086015261132e828261127b565b91505060808301518482036080860152611348828261127b565b91505060a083015184820360a0860152611362828261127b565b91505060c083015161137760c08601826112b4565b508091505092915050565b600061138e83836112c3565b905092915050565b6000602082019050919050565b60006113ae82611209565b6113b88185611214565b9350836020820285016113ca85611225565b8060005b8581101561140657848403895281516113e78582611382565b94506113f283611396565b925060208a019950506001810190506113ce565b50829750879550505050505092915050565b6000602082019050818103600083015261143281846113a3565b905092915050565b600073ffffffffffffffffffffffffffffffffffffffff82169050919050565b60006114658261143a565b9050919050565b6114758161145a565b811461148057600080fd5b50565b6000813590506114928161146c565b92915050565b6000602082840312156114ae576114ad610f39565b5b60006114bc84828501611483565b91505092915050565b60008115159050919050565b6114da816114c5565b82525050565b60006020820190506114f560008301846114d1565b92915050565b600082825260208201905092915050565b600061151782611235565b61152181856114fb565b9350611531818560208601611251565b61153a81610f83565b840191505092915050565b6000604082019050818103600083015261155f818561150c565b90508181036020830152611573818461150c565b90509392505050565b6000806000806080858703121561159657611595610f39565b5b60006115a487828801611483565b94505060206115b587828801611483565b935050604085013567ffffffffffffffff8111156115d6576115d5610f3e565b5b6115e287828801611091565b925050606085013567ffffffffffffffff81111561160357611602610f3e565b5b61160f87828801611091565b91505092959194509250565b600081519050919050565b600082825260208201905092915050565b6000819050602082019050919050565b600061165383836112b4565b60208301905092915050565b6000602082019050919050565b60006116778261161b565b6116818185611626565b935061168c83611637565b8060005b838110156116bd5781516116a48882611647565b97506116af8361165f565b925050600181019050611690565b5085935050505092915050565b600060208201905081810360008301526116e4818461166c565b905092915050565b6116f58161145a565b82525050565b600060208201905061171060008301846116ec565b92915050565b600081519050919050565b600082825260208201905092915050565b6000819050602082019050919050565b6000604083016000830151848203600086015261175f828261127b565b91505060208301518482036020860152611779828261127b565b9150508091505092915050565b60006117928383611742565b905092915050565b6000602082019050919050565b60006117b282611716565b6117bc8185611721565b9350836020820285016117ce85611732565b8060005b8581101561180a57848403895281516117eb8582611786565b94506117f68361179a565b925060208a019950506001810190506117d2565b50829750879550505050505092915050565b6000602082019050818103600083015261183681846117a7565b905092915050565b7f4e487b7100000000000000000000000000000000000000000000000000000000600052602260045260246000fd5b6000600282049050600182168061188557607f821691505b6020821081036118985761189761183e565b5b50919050565b60008190508160005260206000209050919050565b60006020601f8301049050919050565b600082821b905092915050565b6000600883026119007fffffffffffffffffffffffffffffffffffffffffffffffffffffffffffffffff826118c3565b61190a86836118c3565b95508019841693508086168417925050509392505050565b6000819050919050565b600061194761194261193d84610f43565b611922565b610f43565b9050919050565b6000819050919050565b6119618361192c565b61197561196d8261194e565b8484546118d0565b825550505050565b600090565b61198a61197d565b611995818484611958565b505050565b5b818110156119b9576119ae600082611982565b60018101905061199b565b5050565b601f8211156119fe576119cf8161189e565b6119d8846118b3565b810160208510156119e7578190505b6119fb6119f3856118b3565b83018261199a565b50505b505050565b600082821c905092915050565b6000611a2160001984600802611a03565b1980831691505092915050565b6000611a3a8383611a10565b9150826002028217905092915050565b611a5382611235565b67ffffffffffffffff811115611a6c57611a6b610f94565b5b611a76825461186d565b611a818282856119bd565b600060209050601f831160018114611ab45760008415611aa2578287015190505b611aac8582611a2e565b865550611b14565b601f198416611ac28661189e565b60005b82811015611aea57848901518255600182019150602085019450602081019050611ac5565b86831015611b075784890151611b03601f891682611a10565b8355505b6001600288020188555050505b505050505050565b7f4e487b7100000000000000000000000000000000000000000000000000000000600052603260045260246000fd5b7f4e487b7100000000000000000000000000000000000000000000000000000000600052601160045260246000fd5b6000611b8582610f43565b91507fffffffffffffffffffffffffffffffffffffffffffffffffffffffffffffffff8203611bb757611bb6611b4b565b5b600182019050919050565b7f75736572206973206e6f742061646d696e000000000000000000000000000000600082015250565b6000611bf86011836114fb565b9150611c0382611bc2565b602082019050919050565b60006020820190508181036000830152611c2781611beb565b905091905056fea26469706673582212201ba4084f95acadd480a6c7ba275f6ec3d49674bc42d8c1759132d5437d712f7764736f6c63430008130033",
  "immutableReferences": {},
  "source": "pragma solidity ^0.8.0;\r\n\r\ncontract VehicleLicenseVerifier {\r\n    address public admin;\r\n    //define datafields\r\n    struct Official{\r\n        string name;\r\n        string Dzongkhag;\r\n    }\r\n    address[] addressOfOfficials;\r\n    mapping(address=>Official) public Officials;\r\n    constructor() {\r\n        admin = msg.sender;\r\n    }\r\n    \r\n\r\n    function verifyOfficial(address officialAddress) public view returns (bool) {\r\n    for (uint i = 0; i < addressOfOfficials.length; i++) {\r\n        if (addressOfOfficials[i] == officialAddress) {\r\n            return true;\r\n        }\r\n    }\r\n    return false;\r\n}\r\n\r\n    function isAdmin(address adminAddress) public view returns (bool) {\r\n        if (adminAddress == admin) {\r\n            return true;\r\n        } else {\r\n            return false;\r\n        }\r\n    }\r\n\r\n    function addOfficial(address adminAddress,address officialAddress,string memory name,string memory dzongkhag) public{\r\n        require( adminAddress == admin,\"user is not admin\");\r\n        Officials[officialAddress]=Official(name,dzongkhag); \r\n        addressOfOfficials.push(officialAddress);\r\n\r\n    }\r\n    function viewOfficial() public view returns(Official[] memory) {\r\n    Official[] memory officials = new Official[](addressOfOfficials.length);\r\n    for (uint i = 0; i < addressOfOfficials.length; i++) {\r\n        officials[i] = Officials[addressOfOfficials[i]];\r\n    }\r\n    return officials;\r\n}\r\n\r\n\r\n\r\n\r\n\r\n\r\n\r\nstruct licenseDetail{\r\n        string Name;\r\n        string Village;\r\n        string Dzongkhag;\r\n        string LicenseNo;\r\n        string IssuedDate;\r\n        string Validity;\r\n        uint Barcode;\r\n    }\r\n\r\n    //to add the licensedeatils to the blockchain\r\n    uint[] barcodeNumbers;\r\n    mapping(uint=>licenseDetail) licenseInfos;\r\n\r\n    function addLicenseInfo(uint _barcodeNumber,string memory _name,string memory _village,string memory _dzongkhag,string memory _licenseNo,string memory _issuedDate,string memory _validity) public{\r\n        licenseInfos[_barcodeNumber]=licenseDetail(_name,_village,_dzongkhag,_licenseNo,_issuedDate,_validity,_barcodeNumber); \r\n        barcodeNumbers.push(_barcodeNumber);\r\n    }\r\n\r\n     function getAllBarcodeNumbers() public view returns (uint[] memory) {\r\n        return barcodeNumbers;\r\n    }\r\n\r\n    //to view the license details after adding\r\n    function viewLicenseInfos() public view returns (licenseDetail[] memory) {\r\n    licenseDetail[] memory license = new licenseDetail[](barcodeNumbers.length);\r\n    for (uint i = 0; i < barcodeNumbers.length; i++) {\r\n        license[i] = licenseInfos[barcodeNumbers[i]];\r\n    }\r\n    return license;\r\n}\r\n\r\n\r\nfunction editLicenseInfo(uint _barcodeNumber, string memory _name, string memory _village, string memory _dzongkhag, string memory _licenseNo, string memory _issuedDate, string memory _validity) public {\r\n    \r\n    licenseInfos[_barcodeNumber] = licenseDetail(_name, _village, _dzongkhag, _licenseNo, _issuedDate, _validity, _barcodeNumber);\r\n}\r\n\r\n\r\n    \r\n\r\n\r\n}\r\n\r\n",
  "sourcePath": "D:\\My projects\\Final-Year-Project-eth-\\Vehicle-License-Verification\\contracts\\VehicleLicenseVerifier.sol",
  "compiler": {
    "name": "solc",
    "version": "0.8.19+commit.7dd6d404.Emscripten.clang"
  },
  "schemaVersion": "3.4.13",
  "updatedAt": "2023-04-27T14:57:04.108Z",
  "networkType": "ethereum",
  "devdoc": {
    "kind": "dev",
    "methods": {},
    "version": 1
  },
  "userdoc": {
    "kind": "user",
    "methods": {},
    "version": 1
  }
}